{
  "contractName": "Rentals",
  "abi": [
    {
      "constant": false,
      "inputs": [
        {
          "name": "price",
          "type": "uint256"
        },
        {
          "name": "name",
          "type": "bytes32"
        }
      ],
      "name": "register",
      "outputs": [],
      "payable": false,
      "stateMutability": "nonpayable",
      "type": "function"
    },
    {
      "constant": false,
      "inputs": [],
      "name": "listNames",
      "outputs": [
        {
          "name": "",
          "type": "uint256"
        }
      ],
      "payable": false,
      "stateMutability": "nonpayable",
      "type": "function"
    },
    {
      "constant": true,
      "inputs": [
        {
          "name": "",
          "type": "uint256"
        }
      ],
      "name": "registered",
      "outputs": [
        {
          "name": "price",
          "type": "uint256"
        },
        {
          "name": "owner",
          "type": "address"
        },
        {
          "name": "name",
          "type": "bytes32"
        }
      ],
      "payable": false,
      "stateMutability": "view",
      "type": "function"
    },
    {
      "constant": false,
      "inputs": [],
      "name": "handBack",
      "outputs": [],
      "payable": false,
      "stateMutability": "nonpayable",
      "type": "function"
    },
    {
      "inputs": [],
      "payable": false,
      "stateMutability": "nonpayable",
      "type": "constructor"
    }
  ],
  "bytecode": "0x6060604052341561000f57600080fd5b61030e8061001e6000396000f300606060405260043610610057576000357c0100000000000000000000000000000000000000000000000000000000900463ffffffff1680632965d8091461005c5780635723d5cb1461008c578063e6cf1346146100b5575b600080fd5b341561006757600080fd5b61008a60048080359060200190919080356000191690602001909190505061012e565b005b341561009757600080fd5b61009f6101f5565b6040518082815260200191505060405180910390f35b34156100c057600080fd5b6100d66004808035906020019091905050610201565b604051808481526020018373ffffffffffffffffffffffffffffffffffffffff1673ffffffffffffffffffffffffffffffffffffffff1681526020018260001916600019168152602001935050505060405180910390f35b60008054806001018281610142919061025a565b916000526020600020906003020160006060604051908101604052808681526020013373ffffffffffffffffffffffffffffffffffffffff168152602001856000191681525090919091506000820151816000015560208201518160010160006101000a81548173ffffffffffffffffffffffffffffffffffffffff021916908373ffffffffffffffffffffffffffffffffffffffff160217905550604082015181600201906000191690555050505050565b60008080549050905090565b60008181548110151561021057fe5b90600052602060002090600302016000915090508060000154908060010160009054906101000a900473ffffffffffffffffffffffffffffffffffffffff16908060020154905083565b81548183558181151161028757600302816003028360005260206000209182019101610286919061028c565b5b505050565b6102df91905b808211156102db576000808201600090556001820160006101000a81549073ffffffffffffffffffffffffffffffffffffffff0219169055600282016000905550600301610292565b5090565b905600a165627a7a72305820355157a1f71099c6b7b4bd8a37d132ae653884f84e4542cfcd56e7f0763aec280029",
  "source": "pragma solidity ^0.4.0;\n\ncontract Rentals {\n\n    struct Bike {\n        uint price;\n        address owner;\n        bytes32 name;\n    }\n\n    Bike[] public registered;\n\n    function register(uint price, bytes32 name) public {\n        registered.push(Bike({\n            price: price,\n            owner: msg.sender,\n            name: name\n        }));\n    }\n\n    function listNames() returns(uint) {\n        return registered.length;\n    }\n\n}\n",
  "sourcePath": "/home/teo/IdeaProjects/ethereum/BlockBike/contracts/Rentals.sol",
  "compiler": {
    "name": "solc",
    "version": "0.4.18+commit.9cf6e910.Emscripten.clang"
  },
  "schemaVersion": "1.0.1",
  "updatedAt": "2018-01-11T10:37:29.122Z"
}