{
  "contractName": "Rentals",
  "abi": [
    {
      "constant": false,
      "inputs": [
        {
          "name": "price",
          "type": "uint256"
        },
        {
          "name": "name",
          "type": "bytes32"
        }
      ],
      "name": "register",
      "outputs": [],
      "payable": false,
      "stateMutability": "nonpayable",
      "type": "function"
    },
    {
      "constant": true,
      "inputs": [
        {
          "name": "addr",
          "type": "address"
        }
      ],
      "name": "checkBalance",
      "outputs": [
        {
          "name": "",
          "type": "uint256"
        }
      ],
      "payable": false,
      "stateMutability": "view",
      "type": "function"
    },
    {
      "constant": false,
      "inputs": [
        {
          "name": "id",
          "type": "uint256"
        },
        {
          "name": "time",
          "type": "uint256"
        }
      ],
      "name": "rent",
      "outputs": [
        {
          "name": "",
          "type": "bool"
        }
      ],
      "payable": false,
      "stateMutability": "nonpayable",
      "type": "function"
    },
    {
      "constant": true,
      "inputs": [
        {
          "name": "id",
          "type": "uint256"
        }
      ],
      "name": "priceForBike",
      "outputs": [
        {
          "name": "",
          "type": "uint256"
        }
      ],
      "payable": false,
      "stateMutability": "view",
      "type": "function"
    },
    {
      "constant": false,
      "inputs": [
        {
          "name": "amount",
          "type": "uint256"
        },
        {
          "name": "receiver",
          "type": "address"
        }
      ],
      "name": "giveMoney",
      "outputs": [],
      "payable": false,
      "stateMutability": "nonpayable",
      "type": "function"
    },
    {
      "constant": true,
      "inputs": [
        {
          "name": "",
          "type": "uint256"
        }
      ],
      "name": "rentals",
      "outputs": [
        {
          "name": "deadline",
          "type": "uint256"
        },
        {
          "name": "bikeId",
          "type": "uint256"
        },
        {
          "name": "renter",
          "type": "address"
        }
      ],
      "payable": false,
      "stateMutability": "view",
      "type": "function"
    },
    {
      "constant": true,
      "inputs": [
        {
          "name": "",
          "type": "uint256"
        }
      ],
      "name": "registered",
      "outputs": [
        {
          "name": "price",
          "type": "uint256"
        },
        {
          "name": "owner",
          "type": "address"
        },
        {
          "name": "name",
          "type": "bytes32"
        }
      ],
      "payable": false,
      "stateMutability": "view",
      "type": "function"
    },
    {
      "inputs": [],
      "payable": false,
      "stateMutability": "nonpayable",
      "type": "constructor"
    }
  ],
  "bytecode": "0x6060604052341561000f57600080fd5b33600160006101000a81548173ffffffffffffffffffffffffffffffffffffffff021916908373ffffffffffffffffffffffffffffffffffffffff1602179055506109008061005f6000396000f300606060405260043610610083576000357c0100000000000000000000000000000000000000000000000000000000900463ffffffff1680632965d809146100885780635f515226146100b8578063783a112b1461010557806381a300f41461014957806389d6a22114610180578063af94a1d1146101c2578063e6cf134614610233575b600080fd5b341561009357600080fd5b6100b66004808035906020019091908035600019169060200190919050506102ac565b005b34156100c357600080fd5b6100ef600480803573ffffffffffffffffffffffffffffffffffffffff16906020019091905050610373565b6040518082815260200191505060405180910390f35b341561011057600080fd5b61012f60048080359060200190919080359060200190919050506103bb565b604051808215151515815260200191505060405180910390f35b341561015457600080fd5b61016a6004808035906020019091905050610625565b6040518082815260200191505060405180910390f35b341561018b57600080fd5b6101c0600480803590602001909190803573ffffffffffffffffffffffffffffffffffffffff16906020019091905050610666565b005b34156101cd57600080fd5b6101e36004808035906020019091905050610712565b604051808481526020018381526020018273ffffffffffffffffffffffffffffffffffffffff1673ffffffffffffffffffffffffffffffffffffffff168152602001935050505060405180910390f35b341561023e57600080fd5b610254600480803590602001909190505061076b565b604051808481526020018373ffffffffffffffffffffffffffffffffffffffff1673ffffffffffffffffffffffffffffffffffffffff1681526020018260001916600019168152602001935050505060405180910390f35b600280548060010182816102c091906107c4565b916000526020600020906003020160006060604051908101604052808681526020013373ffffffffffffffffffffffffffffffffffffffff168152602001856000191681525090919091506000820151816000015560208201518160010160006101000a81548173ffffffffffffffffffffffffffffffffffffffff021916908373ffffffffffffffffffffffffffffffffffffffff160217905550604082015181600201906000191690555050505050565b60008060008373ffffffffffffffffffffffffffffffffffffffff1673ffffffffffffffffffffffffffffffffffffffff168152602001908152602001600020549050919050565b600080600080600060028054905060018801101515156103da57600080fd5b6002878154811015156103e957fe5b90600052602060002090600302019350836000015492506000803373ffffffffffffffffffffffffffffffffffffffff1673ffffffffffffffffffffffffffffffffffffffff168152602001908152602001600020548311151561044c57600080fd5b600091505b60038054905082101561049c578660038381548110151561046e57fe5b906000526020600020906003020160010154141561048f576000945061061b565b8180600101925050610451565b8542019050600380548060010182816104b591906107f6565b916000526020600020906003020160006060604051908101604052808581526020018b81526020013373ffffffffffffffffffffffffffffffffffffffff168152509091909150600082015181600001556020820151816001015560408201518160020160006101000a81548173ffffffffffffffffffffffffffffffffffffffff021916908373ffffffffffffffffffffffffffffffffffffffff160217905550505050826000803373ffffffffffffffffffffffffffffffffffffffff1673ffffffffffffffffffffffffffffffffffffffff16815260200190815260200160002060008282540392505081905550826000808660010160009054906101000a900473ffffffffffffffffffffffffffffffffffffffff1673ffffffffffffffffffffffffffffffffffffffff1673ffffffffffffffffffffffffffffffffffffffff16815260200190815260200160002060008282540192505081905550600194505b5050505092915050565b6000600280549050600183011015151561063e57600080fd5b60028281548110151561064d57fe5b9060005260206000209060030201600001549050919050565b3373ffffffffffffffffffffffffffffffffffffffff16600160009054906101000a900473ffffffffffffffffffffffffffffffffffffffff1673ffffffffffffffffffffffffffffffffffffffff161415156106c257600080fd5b816000808373ffffffffffffffffffffffffffffffffffffffff1673ffffffffffffffffffffffffffffffffffffffff168152602001908152602001600020600082825401925050819055505050565b60038181548110151561072157fe5b90600052602060002090600302016000915090508060000154908060010154908060020160009054906101000a900473ffffffffffffffffffffffffffffffffffffffff16905083565b60028181548110151561077a57fe5b90600052602060002090600302016000915090508060000154908060010160009054906101000a900473ffffffffffffffffffffffffffffffffffffffff16908060020154905083565b8154818355818115116107f1576003028160030283600052602060002091820191016107f09190610828565b5b505050565b81548183558181151161082357600302816003028360005260206000209182019101610822919061087e565b5b505050565b61087b91905b80821115610877576000808201600090556001820160006101000a81549073ffffffffffffffffffffffffffffffffffffffff021916905560028201600090555060030161082e565b5090565b90565b6108d191905b808211156108cd5760008082016000905560018201600090556002820160006101000a81549073ffffffffffffffffffffffffffffffffffffffff021916905550600301610884565b5090565b905600a165627a7a72305820665c10e676e4b171c3bdd76a3274e584d5bb228ffc139f4b31f82a06c3b7f5cf0029",
  "source": "pragma solidity ^0.4.0;\n\ncontract Rentals {\n\n    struct Bike {\n        uint price;\n        address owner;\n        bytes32 name;\n    }\n\n    struct Rental {\n        uint deadline;\n        uint bikeId;\n        address renter;\n    }\n\n    mapping (address => uint) balances;\n\n\n    address owner;\n\n    Bike[] public registered;\n    Rental[] public rentals;\n\n    function Rentals() public {\n        owner = msg.sender;\n    }\n\n    function giveMoney(uint amount, address receiver) public {\n        require(owner == msg.sender);\n        balances[receiver] += amount;\n    }\n\n    function register(uint price, bytes32 name) public {\n        registered.push(Bike({\n            price: price,\n            owner: msg.sender,\n            name: name\n        }));\n    }\n\n    function rent(uint id, uint time) public returns (bool) {\n        require(id + 1 >= registered.length);\n        var bike = registered[id];\n        // todo consider time here\n        var totalPrice = bike.price;\n        // approx. enough money on sender\n        require( totalPrice > balances[msg.sender]);\n        // bike must be free for rental\n        for (uint i = 0; i < rentals.length; i++) {\n            if(rentals[i].bikeId == id) {\n                return false;\n            }\n        }\n        var futureDeadline = now + time;\n        rentals.push(Rental({\n            deadline: futureDeadline,\n            bikeId: id,\n            renter: msg.sender\n        }));\n        balances[msg.sender] -= totalPrice;\n        balances[bike.owner] += totalPrice;\n        return true;\n    }\n\n\n\n    function priceForBike(uint id) public view returns (uint) {\n        require(id + 1 >= registered.length);\n        return registered[id].price;\n    }\n\n    function checkBalance(address addr) public view returns (uint) {\n        return balances[addr];\n    }\n\n}\n",
  "sourcePath": "/home/teo/IdeaProjects/ethereum/BlockBike/contracts/Rentals.sol",
  "compiler": {
    "name": "solc",
    "version": "0.4.18+commit.9cf6e910.Emscripten.clang"
  },
  "schemaVersion": "1.0.1",
  "updatedAt": "2018-01-15T13:07:17.343Z"
}