{
  "contractName": "Rentals",
  "abi": [
    {
      "constant": false,
      "inputs": [
        {
          "name": "price",
          "type": "uint256"
        },
        {
          "name": "name",
          "type": "bytes32"
        }
      ],
      "name": "register",
      "outputs": [],
      "payable": false,
      "stateMutability": "nonpayable",
      "type": "function"
    },
    {
      "constant": true,
      "inputs": [],
      "name": "checkDeadline",
      "outputs": [
        {
          "name": "",
          "type": "uint256"
        }
      ],
      "payable": false,
      "stateMutability": "view",
      "type": "function"
    },
    {
      "constant": true,
      "inputs": [],
      "name": "latestBikeId",
      "outputs": [
        {
          "name": "",
          "type": "uint256"
        }
      ],
      "payable": false,
      "stateMutability": "view",
      "type": "function"
    },
    {
      "constant": true,
      "inputs": [
        {
          "name": "addr",
          "type": "address"
        }
      ],
      "name": "checkBalance",
      "outputs": [
        {
          "name": "",
          "type": "uint256"
        }
      ],
      "payable": false,
      "stateMutability": "view",
      "type": "function"
    },
    {
      "constant": false,
      "inputs": [
        {
          "name": "id",
          "type": "uint256"
        },
        {
          "name": "timeInSeconds",
          "type": "uint256"
        }
      ],
      "name": "rent",
      "outputs": [
        {
          "name": "",
          "type": "bool"
        }
      ],
      "payable": false,
      "stateMutability": "nonpayable",
      "type": "function"
    },
    {
      "constant": true,
      "inputs": [
        {
          "name": "id",
          "type": "uint256"
        }
      ],
      "name": "priceForBike",
      "outputs": [
        {
          "name": "",
          "type": "uint256"
        }
      ],
      "payable": false,
      "stateMutability": "view",
      "type": "function"
    },
    {
      "constant": false,
      "inputs": [
        {
          "name": "amount",
          "type": "uint256"
        },
        {
          "name": "receiver",
          "type": "address"
        }
      ],
      "name": "giveMoney",
      "outputs": [],
      "payable": false,
      "stateMutability": "nonpayable",
      "type": "function"
    },
    {
      "constant": false,
      "inputs": [
        {
          "name": "bikeId",
          "type": "uint256"
        }
      ],
      "name": "returnBike",
      "outputs": [
        {
          "name": "",
          "type": "bool"
        }
      ],
      "payable": false,
      "stateMutability": "nonpayable",
      "type": "function"
    },
    {
      "constant": true,
      "inputs": [
        {
          "name": "",
          "type": "uint256"
        }
      ],
      "name": "rentals",
      "outputs": [
        {
          "name": "deadline",
          "type": "uint256"
        },
        {
          "name": "bikeId",
          "type": "uint256"
        },
        {
          "name": "renter",
          "type": "address"
        }
      ],
      "payable": false,
      "stateMutability": "view",
      "type": "function"
    },
    {
      "constant": true,
      "inputs": [
        {
          "name": "",
          "type": "uint256"
        }
      ],
      "name": "registered",
      "outputs": [
        {
          "name": "price",
          "type": "uint256"
        },
        {
          "name": "owner",
          "type": "address"
        },
        {
          "name": "name",
          "type": "bytes32"
        },
        {
          "name": "bikeId",
          "type": "uint256"
        }
      ],
      "payable": false,
      "stateMutability": "view",
      "type": "function"
    },
    {
      "inputs": [],
      "payable": false,
      "stateMutability": "nonpayable",
      "type": "constructor"
    },
    {
      "anonymous": false,
      "inputs": [
        {
          "indexed": true,
          "name": "_owner",
          "type": "address"
        },
        {
          "indexed": true,
          "name": "_bikeId",
          "type": "uint256"
        },
        {
          "indexed": false,
          "name": "_price",
          "type": "uint256"
        }
      ],
      "name": "LogRegister",
      "type": "event"
    },
    {
      "anonymous": false,
      "inputs": [
        {
          "indexed": true,
          "name": "_bikeId",
          "type": "uint256"
        },
        {
          "indexed": true,
          "name": "_time",
          "type": "uint256"
        },
        {
          "indexed": false,
          "name": "_additionalPrice",
          "type": "uint256"
        }
      ],
      "name": "LogReturn",
      "type": "event"
    },
    {
      "anonymous": false,
      "inputs": [
        {
          "indexed": true,
          "name": "_bikeId",
          "type": "uint256"
        },
        {
          "indexed": true,
          "name": "_renter",
          "type": "address"
        },
        {
          "indexed": false,
          "name": "_deadline",
          "type": "uint256"
        },
        {
          "indexed": false,
          "name": "_price",
          "type": "uint256"
        }
      ],
      "name": "LogRent",
      "type": "event"
    }
  ],
  "bytecode": "0x60606040526000600455341561001457600080fd5b33600160006101000a81548173ffffffffffffffffffffffffffffffffffffffff021916908373ffffffffffffffffffffffffffffffffffffffff1602179055506110a1806100646000396000f3006060604052600436106100a4576000357c0100000000000000000000000000000000000000000000000000000000900463ffffffff1680632965d809146100a957806343bf9936146100d95780635dd5462d146101025780635f5152261461012b578063783a112b1461017857806381a300f4146101bc57806389d6a221146101f3578063a56a91c514610235578063af94a1d114610270578063e6cf1346146102e1575b600080fd5b34156100b457600080fd5b6100d7600480803590602001909190803560001916906020019091905050610361565b005b34156100e457600080fd5b6100ec6104ac565b6040518082815260200191505060405180910390f35b341561010d57600080fd5b610115610573565b6040518082815260200191505060405180910390f35b341561013657600080fd5b610162600480803573ffffffffffffffffffffffffffffffffffffffff16906020019091905050610579565b6040518082815260200191505060405180910390f35b341561018357600080fd5b6101a260048080359060200190919080359060200190919050506105c1565b604051808215151515815260200191505060405180910390f35b34156101c757600080fd5b6101dd600480803590602001909190505061090f565b6040518082815260200191505060405180910390f35b34156101fe57600080fd5b610233600480803590602001909190803573ffffffffffffffffffffffffffffffffffffffff16906020019091905050610950565b005b341561024057600080fd5b61025660048080359060200190919050506109fc565b604051808215151515815260200191505060405180910390f35b341561027b57600080fd5b6102916004808035906020019091905050610cfd565b604051808481526020018381526020018273ffffffffffffffffffffffffffffffffffffffff1673ffffffffffffffffffffffffffffffffffffffff168152602001935050505060405180910390f35b34156102ec57600080fd5b6103026004808035906020019091905050610d56565b604051808581526020018473ffffffffffffffffffffffffffffffffffffffff1673ffffffffffffffffffffffffffffffffffffffff168152602001836000191660001916815260200182815260200194505050505060405180910390f35b60008211151561037057600080fd5b600280548060010182816103849190610f2b565b916000526020600020906004020160006080604051908101604052808681526020013373ffffffffffffffffffffffffffffffffffffffff1681526020018560001916815260200160045481525090919091506000820151816000015560208201518160010160006101000a81548173ffffffffffffffffffffffffffffffffffffffff021916908373ffffffffffffffffffffffffffffffffffffffff16021790555060408201518160020190600019169055606082015181600301555050506004543373ffffffffffffffffffffffffffffffffffffffff167f01b2d1518a3510acf0ba6c3d5ec36b245f8853c18ff114eab98d0010a09a5b33846040518082815260200191505060405180910390a36004600081548092919060010191905055505050565b600080600090505b60038054905081101561056a573373ffffffffffffffffffffffffffffffffffffffff166003828154811015156104e757fe5b906000526020600020906003020160020160009054906101000a900473ffffffffffffffffffffffffffffffffffffffff1673ffffffffffffffffffffffffffffffffffffffff16141561055d5760038181548110151561054457fe5b906000526020600020906003020160000154915061056f565b80806001019150506104b4565b600091505b5090565b60045481565b60008060008373ffffffffffffffffffffffffffffffffffffffff1673ffffffffffffffffffffffffffffffffffffffff168152602001908152602001600020549050919050565b60008060008060008060006105d46104ac565b1415156105e057600080fd5b600260008154811015156105f057fe5b9060005260206000209060040201945060009350600092505b600280549050831015610673578760028481548110151561062657fe5b90600052602060002090600402016003015414156106665760028381548110151561064d57fe5b9060005260206000209060040201945060019350610673565b8280600101935050610609565b6001151584151514151561068657600080fd5b8685600001540291506000803373ffffffffffffffffffffffffffffffffffffffff1673ffffffffffffffffffffffffffffffffffffffff16815260200190815260200160002054600283021015156106de57600080fd5b600092505b60038054905083101561072e578760038481548110151561070057fe5b90600052602060002090600302016001015414156107215760009550610904565b82806001019350506106e3565b8642019050600380548060010182816107479190610f5d565b916000526020600020906003020160006060604051908101604052808581526020018c81526020013373ffffffffffffffffffffffffffffffffffffffff168152509091909150600082015181600001556020820151816001015560408201518160020160006101000a81548173ffffffffffffffffffffffffffffffffffffffff021916908373ffffffffffffffffffffffffffffffffffffffff160217905550505050816000803373ffffffffffffffffffffffffffffffffffffffff1673ffffffffffffffffffffffffffffffffffffffff16815260200190815260200160002060008282540392505081905550816000808760010160009054906101000a900473ffffffffffffffffffffffffffffffffffffffff1673ffffffffffffffffffffffffffffffffffffffff1673ffffffffffffffffffffffffffffffffffffffff168152602001908152602001600020600082825401925050819055503373ffffffffffffffffffffffffffffffffffffffff16887fb5108bab3e17ead26a0ed1d9339a09da1828cf2e9913029783b02f8b38e20af18385604051808381526020018281526020019250505060405180910390a3600195505b505050505092915050565b6000600280549050600183011015151561092857600080fd5b60028281548110151561093757fe5b9060005260206000209060040201600001549050919050565b3373ffffffffffffffffffffffffffffffffffffffff16600160009054906101000a900473ffffffffffffffffffffffffffffffffffffffff1673ffffffffffffffffffffffffffffffffffffffff161415156109ac57600080fd5b816000808373ffffffffffffffffffffffffffffffffffffffff1673ffffffffffffffffffffffffffffffffffffffff168152602001908152602001600020600082825401925050819055505050565b6000806000806000806000806000809550600094505b600380549050851015610a7f5789600386815481101515610a2f57fe5b9060005260206000209060030201600101541415610a7257600385815481101515610a5657fe5b9060005260206000209060030201975084965060019550610a7f565b8480600101955050610a12565b600015158615151415610a955760009850610cf0565b3373ffffffffffffffffffffffffffffffffffffffff168860020160009054906101000a900473ffffffffffffffffffffffffffffffffffffffff1673ffffffffffffffffffffffffffffffffffffffff16141515610af357600080fd5b4293508760000154841015610b4b57610b0b87610db5565b50838a7ffcaadf2d4a62b201ed557ba6434de783f500ded9d2b4371faaad887a5d99096060006040518082815260200191505060405180910390a3610ceb565b60026000815481101515610b5b57fe5b90600052602060002090600402019250600094505b600280549050851015610bd65789600286815481101515610b8d57fe5b9060005260206000209060040201600301541415610bc957600285815481101515610bb457fe5b90600052602060002090600402019250610bd6565b8480600101955050610b70565b876000015484039150600283600001548302029050806000803373ffffffffffffffffffffffffffffffffffffffff1673ffffffffffffffffffffffffffffffffffffffff16815260200190815260200160002060008282540392505081905550806000808560010160009054906101000a900473ffffffffffffffffffffffffffffffffffffffff1673ffffffffffffffffffffffffffffffffffffffff1673ffffffffffffffffffffffffffffffffffffffff16815260200190815260200160002060008282540192505081905550610cb087610db5565b50838a7ffcaadf2d4a62b201ed557ba6434de783f500ded9d2b4371faaad887a5d990960836040518082815260200191505060405180910390a35b600198505b5050505050505050919050565b600381815481101515610d0c57fe5b90600052602060002090600302016000915090508060000154908060010154908060020160009054906101000a900473ffffffffffffffffffffffffffffffffffffffff16905083565b600281815481101515610d6557fe5b90600052602060002090600402016000915090508060000154908060010160009054906101000a900473ffffffffffffffffffffffffffffffffffffffff16908060020154908060030154905084565b60008060038054905083101515610dcf5760009150610f25565b8290505b600160038054905003811015610eab57600360018201815481101515610df557fe5b9060005260206000209060030201600382815481101515610e1257fe5b906000526020600020906003020160008201548160000155600182015481600101556002820160009054906101000a900473ffffffffffffffffffffffffffffffffffffffff168160020160006101000a81548173ffffffffffffffffffffffffffffffffffffffff021916908373ffffffffffffffffffffffffffffffffffffffff1602179055509050508080600101915050610dd3565b6003600160038054905003815481101515610ec257fe5b906000526020600020906003020160008082016000905560018201600090556002820160006101000a81549073ffffffffffffffffffffffffffffffffffffffff021916905550506003805480919060019003610f1f9190610f8f565b50600191505b50919050565b815481835581811511610f5857600402816004028360005260206000209182019101610f579190610fc1565b5b505050565b815481835581811511610f8a57600302816003028360005260206000209182019101610f89919061101f565b5b505050565b815481835581811511610fbc57600302816003028360005260206000209182019101610fbb919061101f565b5b505050565b61101c91905b80821115611018576000808201600090556001820160006101000a81549073ffffffffffffffffffffffffffffffffffffffff02191690556002820160009055600382016000905550600401610fc7565b5090565b90565b61107291905b8082111561106e5760008082016000905560018201600090556002820160006101000a81549073ffffffffffffffffffffffffffffffffffffffff021916905550600301611025565b5090565b905600a165627a7a72305820f657645083917bbf48b8e57b36cc615c996a5b5b28bee7e61790dee7acfd29550029",
  "source": "pragma solidity ^0.4.0;\n\ncontract Rentals {\n\n    struct Bike {\n        uint price;\n        address owner;\n        bytes32 name;\n        uint bikeId;\n    }\n\n    struct Rental {\n        uint deadline;\n        uint bikeId;\n        address renter;\n    }\n\n    mapping (address => uint) balances;\n\n    address owner;\n\n    Bike[] public registered;\n    Rental[] public rentals;\n    uint public latestBikeId = 0;\n\n    event LogRegister(address indexed _owner, uint indexed _bikeId, uint _price);\n    event LogReturn(uint indexed _bikeId, uint indexed _time, uint _additionalPrice);\n    event LogRent(uint indexed _bikeId, address indexed _renter, uint _deadline, uint _price);\n\n\n    function Rentals() public {\n        owner = msg.sender;\n    }\n\n    function giveMoney(uint amount, address receiver) public {\n        require(owner == msg.sender);\n        balances[receiver] += amount;\n    }\n\n    // return id of new bike\n    function register(uint price, bytes32 name) public {\n        require(price > 0);\n        registered.push(Bike({\n            price: price,\n            owner: msg.sender,\n            name: name,\n            bikeId: latestBikeId\n        }));\n        LogRegister(msg.sender,latestBikeId,price);\n        latestBikeId++;\n    }\n\n    function rent(uint id, uint timeInSeconds) public returns (bool) {\n        // user can have only one bike LogRent at time\n        require(checkDeadline() == 0);\n        // cause of error \"Assignment necessary for type detection.\"\n        var bike = registered[0];\n        bool found = false;\n        for(uint i = 0; i < registered.length; i++) {\n            if(registered[i].bikeId == id) {\n                bike = registered[i];\n                found = true;\n                break;\n            }\n        }\n        require(found == true);\n        var totalPrice = bike.price * timeInSeconds;\n        // approx. enough money on sender (case where returning late included)\n        require( totalPrice * 2 < balances[msg.sender]);\n        // bike must be free for rental\n        for (i = 0; i < rentals.length; i++) {\n            if(rentals[i].bikeId == id) {\n                // todo handle errors correctly\n                return false;\n            }\n        }\n        var futureDeadline = now + timeInSeconds;\n        rentals.push(Rental({\n            deadline: futureDeadline,\n            bikeId: id,\n            renter: msg.sender\n        }));\n        balances[msg.sender] -= totalPrice;\n        balances[bike.owner] += totalPrice;\n        LogRent(id,msg.sender,futureDeadline,totalPrice);\n        return true;\n    }\n\n    // returns false if there was no bike to return\n    function returnBike(uint bikeId) public returns (bool) {\n        // find the bike by id\n        Rental rental;\n        uint rentalIndex;\n        bool found = false;\n        for (uint i = 0; i < rentals.length; i++) {\n            if(rentals[i].bikeId == bikeId) {\n                rental = rentals[i];\n                rentalIndex = i;\n                found = true;\n                break;\n            }\n        }\n        if(found == false) return false;\n        require(rental.renter == msg.sender);\n        var returningTime = now;\n        if ( returningTime < rental.deadline) {\n            removeRental(rentalIndex);\n            LogReturn(bikeId, returningTime, 0);\n        } else {\n            // find bike\n            var bike = registered[0];\n            for(i = 0; i < registered.length; i++) {\n                if(registered[i].bikeId == bikeId) {\n                    bike = registered[i];\n                    break;\n                }\n            }\n            var secondsLate = (returningTime - rental.deadline);\n            // if late double the rental fee per hour\n            var additionalPrice = secondsLate * bike.price * 2;\n            balances[msg.sender] -= additionalPrice;\n            balances[bike.owner] += additionalPrice;\n            removeRental(rentalIndex);\n            LogReturn(bikeId, returningTime, additionalPrice);\n        }\n        return true;\n    }\n\n    function removeRental(uint index) private returns (bool) {\n        if (index >= rentals.length) return false;\n        for (uint i = index; i<rentals.length-1; i++){\n            rentals[i] = rentals[i+1];\n        }\n        delete rentals[rentals.length-1];\n        rentals.length--;\n        return true;\n    }\n\n    function priceForBike(uint id) public view returns (uint) {\n        require(id + 1 >= registered.length);\n        return registered[id].price;\n    }\n\n    function checkBalance(address addr) public view returns (uint) {\n        return balances[addr];\n    }\n\n    // returns deadline for calling user rental. if there is none like it returns 0\n    function checkDeadline() public view returns (uint) {\n        for(uint i = 0; i < rentals.length; i++) {\n            if(rentals[i].renter == msg.sender) {\n                return rentals[i].deadline;\n            }\n        }\n        return 0;\n    }\n}\n",
  "sourcePath": "/home/teo/IdeaProjects/ethereum/BlockBike/contracts/Rentals.sol",
  "compiler": {
    "name": "solc",
    "version": "0.4.18+commit.9cf6e910.Emscripten.clang"
  },
  "schemaVersion": "1.0.1",
  "updatedAt": "2018-01-18T22:11:56.184Z"
}